:040000000DEF00F010
:040008003BEF85F055
:06001800FF00A7EF85F0D8
:10FDC20000040A010000000000007A110100000096
:10FDD200E40F01000000000000000000000000002D
:10FDE2000000000000000000000000000000000011
:10FDF200000000000000000000000000009A100156
:10FE02007810015610010000008A0E0100000098CF
:10FE12000401000000000000740C01180C01000035
:10FE220000BA0F01900F0100000000000032110122
:10FE3200241101020000FF0002400000004552525E
:10FE42004F523A20434F4E464947207265676973C5
:10FE5200746572206973206E6F742070726F7065A2
:10FE6200726C7920636F6E666967757265642028AB
:10FE7200307825303258290A004D61782072657435
:10FE820072616E736D697373696F6E2072656163FF
:10FE92006865642E20466C757368696E67205458D5
:10FEA2002E0A00434F4E46494720726567697374B4
:10FEB20065722069732070726F7065726C7920634D
:10FEC2006F6E666967757265642E0A003D3D3D205E
:10FED200436865636B696E67206E524632344C30FC
:10FEE2003120436F6E66696775726174696F6E2047
:10FEF2003D3D3D0A003D3D3D20436F6E666967759D
:10FF0200726174696F6E20436865636B20436F6D25
:10FF1200706C657465203D3D3D0A00454E5F414170
:10FF22003A2030782530325820284175746F2041AC
:10FF3200636B6E6F776C6564676D656E74290A001A
:10FF420052465F53455455503A2030782530325846
:10FF5200202852462073657474696E6773290A00FB
:10FF620052465F43483A2030782530325820285292
:10FF720046206368616E6E656C290A00496E697479
:10FF820069616C697A696E67206E524632344C3010
:10FF9200312E2E2E0A00446174612073656E742026
:10FFA2007375636365737366756C6C79210A0053AC
:10FFB200656E64696E6720646174612E2E2E0A007C
:10FFC200434F4E4649473A203078253032580A008E
:10FFD2005354415455533A203078253032580A0050
:10FFE20052585F414444525F50303A200054585FA7
:0EFFF200414444523A2000253032582000008D
:020000040001F9
:10000000CE0E406EFE0E416E06EC88F0000E19EC2E
:1000100088F0596EC20E406EFF0E416E59C542F512
:10002000436A06EC88F059500F0B0E0AD8B41BEF48
:1000300080F01DEF80F032EF80F059500F0B0F0A67
:10004000D8B425EF80F027EF80F032EF80F03F0E3C
:10005000406EFE0E416E59C542F5436A06EC88F0CB
:1000600038EF80F0A50E406EFE0E416E06EC88F073
:10007000010E19EC88F0516E1D0E406EFF0E416EA0
:1000800051C542F5436A06EC88F0060E19EC88F07B
:10009000526E420E406EFF0E416E52C542F5436AEB
:1000A00006EC88F0050E19EC88F0536E620E406E77
:1000B000FF0E416E53C542F5436A06EC88F0070E09
:1000C00019EC88F0546ED20E406EFF0E416E54C58E
:1000D00042F5436A06EC88F0470E076E050E086E7F
:1000E000000E0A6E050E096E0A0EB3EC87F0E20EE2
:1000F000406EFF0E416E06EC88F0000E566E000E4C
:10010000556EF90E406EFF0E416E470E5524D96EA6
:10011000050E5620DA6EDF50466E4650426E436A38
:1001200006EC88F0554A562A56BEA0EF80F056508D
:1001300009E1050E555CD8A0A0EF80F0A2EF80F099
:1001400081EF80F0AF0E406EFF0E416E06EC88F03E
:100150004C0E076E050E086E000E0A6E050E096E37
:10016000100EB3EC87F0EF0E406EFF0E416E06EC02
:1001700088F0000E586E000E576EF90E406EFF0E9E
:10018000416E4C0E5724D96E050E5820DA6EDF50A2
:10019000466E4650426E436A06EC88F0574A582A2B
:1001A00058BEDCEF80F0585009E1050E575CD8A02E
:1001B000DCEF80F0DEEF80F0BDEF80F0AF0E406E40
:1001C000FF0E416E06EC88F0F70E406EFE0E416E9B
:1001D00006EC88F012002BC5D9F42CC5DAF4DEC485
:1001E000F6F4DDC4F7F4000EF86E0800F550250AA9
:1001F000D8A4FDEF80F0FFEF80F0B3EF81F02BC5C6
:10020000D9F42CC5DAF4DE2A000EDD22000E5D6E74
:10021000000E5C6E5CC55EF505017B697C69356A24
:1002200032EF81F05E822BC5D9F42CC5DAF4DE2AD8
:10023000000EDD2232EF81F0010E356E32EF81F0DB
:100240002BC5D9F42CC5DAF4DEC4F6F4DDC4F7F41A
:10025000000EF86E0800F550300AD8B412EF81F0A5
:100260001CEF81F03550D8B438EF81F03AEF81F0CF
:1002700020EF81F02BC501F52CC502F52DC503F546
:100280002EC504F51EEC83F001C55CF502C55DF5D5
:100290005DBE4FEF81F04DEF81F054EF81F05E8055
:1002A0005C6C5D1ED8B05D2A2BC5D9F42CC5DAF480
:1002B000DEC436F5DDC437F536C5F6F437C5F7F4D8
:1002C000000EF86E0800F550580AD8A46AEF81F0C5
:1002D0006CEF81F0AAEF81F02DC5D9F42EC5DAF4C8
:1002E000DFC42FF5020EDE26DFC430F5000EDD225E
:1002F0002FC5D9F430C5DAF4DEC431F5DDC432F5EA
:10030000010E36242F6E000E3720306E2BC5D9F427
:100310002CC5DAF42FC5DEF430C5DDF49CEF81F096
:1003200029C51CF52AC51DF531C51EF532C51FF5B9
:10033000CAEC81F0C9EF81F036C5F6F437C5F7F4A1
:10034000000EF86E0800F550580AD8B490EF81F00E
:10035000AAEF81F02BC5D9F42CC5DAF4DE2A000E01
:10036000DD22C9EF81F02BC5D9F42CC5DAF4DEC447
:10037000F6F4DDC4F7F4000EF86E0800F550036ED5
:10038000046A29C505F52AC506F584EC83F0AAEFB1
:1003900081F01200010E236E5CC524F55DC525F5C4
:1003A000000E286E1F0E276E0501A06B08EF82F06D
:1003B0002706D8A028061E500F0B266E0A0E2660B0
:1003C000E4EF81F0E6EF81F0EAEF81F0300E2626CF
:1003D000ECEF81F0370E2626810E2724D96E050E0C
:1003E0002820DA6E26C5DFF4236A2406D8A0250665
:1003F0001EC520F51FC521F5040E226ED8902132AE
:100400002032222EFEEF81F020C51EF521C51FF5FA
:1004100028BE14EF82F0285009E1020E275CD8A014
:1004200014EF82F016EF82F03BEF82F01E501F10A7
:10043000D8A41DEF82F01FEF82F0D8EF81F0235097
:10044000D8A425EF82F027EF82F0D8EF81F025BE07
:1004500032EF82F0255008E12404D8A032EF82F078
:1004600034EF82F03BEF82F05EB239EF82F03BEF87
:1004700082F0D8EF81F01CC513F51DC514F5810E6F
:100480002724156E050E2820166E24C517F525C5E0
:1004900018F53BEC84F01200016E000184BF53EFAD
:1004A00082F055EF82F0B5EF82F0810E0501686FA2
:1004B0000150050D350EF324F66EFE0EF420F76E96
:1004C000F86A000EF8220800F5C484F00150050D0A
:1004D000010EF326000EF422350EF324F66EFE0E06
:1004E000F420F76EF86A000EF8220800F5C485F0D3
:1004F0000150050D020EF326000EF422350EF324F2
:10050000F66EFE0EF420F76EF86A000EF822080070
:10051000F550FC0B0001866F0150050D030EF3260C
:10052000000EF422350EF324F66EFE0EF420F76E64
:10053000F86A000EF8220800F5C489F00150050D94
:10054000040EF326000EF422350EF324F66EFE0E92
:10055000F420F76EF86A000EF8220800F5C48CF05B
:10056000C896A184848FB5EF82F01200A10E016EAF
:10057000050E026E000E046E000E036E000E066E77
:10058000200E056E63EC87F0A10E016E050E026E63
:1005900046C503F547C504F548C505F549C506F543
:1005A00091EC86F0A10E026E050E036E000E056E34
:1005B000200E046EDFEC86F0B9EC88F0150E4A6E62
:1005C000C60EE82EFED74A2EFCD700D0B5EC88F038
:1005D000070E19EC88F00501C16FD20E406EFF0EB8
:1005E000416EC1C542F5436A06EC88F00501C1AB16
:1005F000FCEF82F0FEEF82F006EF83F0980E406E83
:10060000FF0E416E06EC88F018EF83F0C1A90BEFE6
:1006100083F00DEF83F018EF83F07B0E406EFE0E3B
:10062000416E06EC88F0000E076EE10E9AEC87F042
:10063000700E076E070E9AEC87F01200000E096E1E
:10064000000E086E01C5D9F402C5DAF4DEC4F6F472
:10065000DDC4F7F4000EF86E0800F5502A0AD8A49D
:1006600034EF83F036EF83F069EF83F001C5D9F4FE
:1006700002C5DAF4DE2A000EDD2203C5D9F404C572
:10068000DAF4DFC405F5020EDE26DFC406F5000E3F
:10069000DD2205C5D9F406C5DAF4DEC408F5DDC4EB
:1006A00009F57FEF83F00A0E0802F3C405F5F4C4E0
:1006B00006F50902F350062607500524086E000EC1
:1006C0000620096E01C5D9F402C5DAF4DE2A000E4F
:1006D000DD2201C5D9F402C5DAF4DEC4F6F4DDC4C6
:1006E000F7F4000EF86E0800F550D00F076E090EF3
:1006F00007647DEF83F07FEF83F053EF83F008C54D
:1007000001F509C502F5120005500610D8B48BEFAB
:1007100083F08DEF83F096EF83F005500610D8A498
:1007200094EF83F096EF83F09BEF83F003506EEC31
:1007300088F0E8EF83F020EE09F00550D926065046
:10074000DA22DE50DE10D8B4A8EF83F0AAEF83F0EF
:10075000C5EF83F020EE09F00550D9260650DA22C5
:1007600010EE02F00550E1260650E222DE50E65C73
:10077000E650800A0B6EDE50800A0B58D8B0C3EFEB
:1007800083F0C5EF83F0E8EF83F020EE02F0055030
:10079000D9260650DA22DEC407F5DDC408F505C502
:1007A000D9F406C5DAF4DEC409F5DDC40AF507504C
:1007B0000924D96E08500A20DA6E03C5DFF420EE52
:1007C00002F00550D9260650DA22DE2A000EDD227C
:1007D0001200BE6ABF6AC06AC16AC26AC36A040103
:1007E000026B0A6B126B1A6B226B2A6BC668C768A6
:1007F0001F0EC86EC9680F0ECA6EFE0ECB6E006962
:100800000869070E106F1869070E206FFC0E286F1D
:10081000016B096B116B196B216B296B03690B69F8
:1008200013691B69070E236F2B6904690C6914692E
:100830001C690F0E246F2C690201896B886B876B12
:10084000866B290E726F140E6B6F200E296F320E9D
:10085000166F130E6A6F310E146F0401056B066B71
:10086000076B0D6B0E6B0F6B156B166B176B256B98
:10087000266B276B12005EA040EF84F042EF84F0FD
:100880004CEF84F015C50CF516C50DF513C50EF526
:1008900014C50FF503EC87F018BE53EF84F051EF49
:1008A00084F057EF84F0000E186E000E176E000EE5
:1008B0001B6E000E1A6E69EF84F0000E046E200E9F
:1008C000036E13C505F514C506F584EC83F01A4ACA
:1008D0001B2A17501A5C1B50800A196E1850800A88
:1008E0001958D8A076EF84F078EF84F05DEF84F0AB
:1008F0005EB07DEF84F07FEF84F089EF84F015C562
:100900000CF516C50DF513C50EF514C50FF503EC62
:1009100087F012007DEC88F0D68E000E4CEC82F051
:100920007E0E406EFF0E416E06EC88F0C9EC84F03E
:1009300000EC80F021EE00F211EEC2F11F0EDBC4DC
:10094000E3F4E806FCE2B10E406EFF0E416E06ECE9
:1009500088F0C20E466E050E476EC20E016E050E81
:10096000026E7FEC87F001C548F502C549F5B6EC8B
:1009700082F0520E5B6E2B0E5A6E000EE82EFED7E2
:100980005A2EFCD75B2EFAD700D0A3EF84F00DEFE0
:1009900000F00E0E076E000E9AEC87F0060E076E42
:1009A000060E9AEC87F0020E076E050E9AEC87F0A1
:1009B00021EEE8F111EE0BF1040EDBC4E3F4E806DE
:1009C000FCE20B0E026E050E036E000E056E050EA8
:1009D000046E100EB9EC86F00B0E026E050E036E5F
:1009E000000E056E050E046E0A0EB9EC86F0010EBF
:1009F000076E010E9AEC87F0200E076E110E9AEC2E
:100A000087F012000201A16BA26BA36BA46BA56B14
:100A1000A66BA76BA86BA96BAA6BB00EAB6F800E11
:100A2000AC6F080EAD6F820EAE6F060EAF6F2E0E5E
:100A3000B06FB16B800EB26FB36B000E016E000E23
:100A4000026E000E036E4DEC88F0000E016E000E7B
:100A5000026E000E036E3CEC88F0000E016E000E7C
:100A6000026E000E036E2BEC88F0000E0501806F05
:100A7000000E7F6F1200A1A240EF85F042EF85F0DB
:100A80004DEF85F0B1A247EF85F049EF85F04DEFCE
:100A900085F0DAEC85F071EF85F0A1A452EF85F0D6
:100AA00054EF85F05FEF85F0B1A459EF85F05BEF6F
:100AB00085F05FEF85F0CCEC88F071EF85F0A1A0B8
:100AC00064EF85F066EF85F071EF85F0B1A06BEF14
:100AD00085F06DEF85F071EF85F072EC85F071EFC8
:100AE00085F01100050166516711D8B47AEF85F0E1
:100AF0007CEF85F08CEF85F062C5D9F463C5DAF43C
:100B000080C0DFF4624B632BFF0E6625666FFF0E1D
:100B10006721676F8EEF85F00001805105016651F6
:100B20006711D8A496EF85F098EF85F0A6EF85F0D1
:100B3000A19064516511D8A4A0EF85F0A2EF85F0D3
:100B4000A6EF85F0810E686FA6EF85F01200BC0E4F
:100B5000F66E100EF76E010EF86E01EE00F210EE5A
:100B600020F00900F5C4EEF4E550E150FAE1920EF0
:100B7000F66E110EF76E010EF86E01EEE8F110EE52
:100B800005F00900F5C4EEF4E550E150FAE101EE9C
:100B900060F1410EEE6AE806FDE15E6A5D6A5C6A3C
:100BA0000401080E5D6F000E5E6F000E5F6F0001A6
:100BB0008AEF84F0050164516511D8B4E2EF85F045
:100BC000E4EF85F0F4EF85F060C5D9F461C5DAF49F
:100BD000DF500001816F0501604B612BFF0E642522
:100BE000646FFF0E6521656F64516511D8A4FBEF3A
:100BF00085F0FDEF85F00BEF86F0A192665167114D
:100C0000D8A405EF86F007EF86F00BEF86F0810E93
:100C1000686F0BEF86F0120001C505F502C506F5F9
:100C2000810E05016819D8A418EF86F01AEF86F036
:100C300039EF86F0000187858651FE0B0209866F29
:100C400005C560F506C561F5000E0501626F000E71
:100C5000636F03C564F504C565F5000E676F000E8C
:100C6000666F420E686F04500001836F03C582F007
:100C7000A182120001C505F502C506F5810E050128
:100C80006819D8A446EF86F048EF86F067EF86F043
:100C9000000187858651FD0B0109866F000E050155
:100CA000606F000E616F05C562F506C563F5000E45
:100CB000656F000E646F03C566F504C567F5420EE7
:100CC000686F04500001836F03C582F0A180120099
:100CD0003AC53EF53BC53FF57CEF86F038C529F5B2
:100CE00039C52AF53E0E2B6E050E2C6E3CC52DF532
:100CF0003DC52EF5EBEC80F03EC5F6F43FC5F7F4AC
:100D0000000EF86E0800F5500009D8A48AEF86F0AE
:100D10008CEF86F06EEF86F0000E396E000E386EA6
:100D2000120003C509F504C50AF501C507F502C59A
:100D300008F5ABEF86F009C5D9F40AC5DAF4DF503F
:100D40000B6E094A0A2A07C5D9F408C5DAF40BC59F
:100D5000DFF4074A082A0506D8A00606052806E19A
:100D60000628D8A4B6EF86F0B8EF86F09BEF86F0A1
:100D70001200066E06502009076E0750C8EC87F077
:100D8000000E096E000E086ED1EF86F008500224A6
:100D9000D96E09500320DA6EDF50C8EC87F0084A9C
:100DA000092A0450085C05500958D8A0DAEF86F0EB
:100DB000DCEF86F0C6EF86F0C5EC88F01200C1ECDF
:100DC00088F0A00EC8EC87F0000E076E000E066ECD
:100DD000F5EF86F006500224D96E07500320DA6E34
:100DE000DF50C8EC87F0064A072A0450065C05501D
:100DF0000758D8A0FEEF86F000EF87F0EAEF86F004
:100E0000C5EC88F01200000E126E000E116E14EF89
:100E100087F010C503F5046A0EC505F50FC506F584
:100E200084EC83F0114A122A11500C24D96E12500E
:100E30000D20DA6EDF50106E1050D8A422EF87F02C
:100E400024EF87F009EF87F01200D69AAF90D68092
:100E5000000E016E000E026E000E036EAEEC88F006
:100E6000B490D682000E016E000E026E000E036E6C
:100E7000A7EC88F0B890D684000E016E000E026ECA
:100E8000000E036EA0EC88F01200A194A182A18054
:100E90000001846B040E856F866B896B8C6B878574
:100EA000000E016E000E026E000E036E99EC88F0CB
:100EB000000E016E000E026E000E036E92EC88F0C2
:100EC0000501686B120001C507F502C508F571EF51
:100ED00087F007C5D9F408C5DAF403C5DFF4074A7B
:100EE000082A0506D8A00606052806E10628D8A483
:100EF0007CEF87F07EEF87F069EF87F0120001C585
:100F000003F502C504F587EF87F0014A022A01C5FF
:100F1000D9F402C5DAF4DF50D8A491EF87F093EF4B
:100F200087F085EF87F00350015C016E0450025892
:100F3000026E1200086E000E0A6E000E096E085056
:100F40002009096E07C50AF5C1EC88F0090E016E8B
:100F5000050E026E000E046E020E036E0CEC86F09F
:100F6000C5EC88F012000D6EC1EC88F00DC50EF5D1
:100F70000E50C8EC87F00BC501F50CC502F509C58C
:100F800003F50AC504F53AEC86F0C5EC88F01200CA
:100F9000016E810E05016819D8A4D1EF87F0D3EF57
:100FA00087F0DCEF87F0000186510309866F836BC1
:100FB000010E826F01C581F01200810E05016819D2
:100FC000D8A4E5EF87F0E7EF87F0EFEF87F00001B7
:100FD00086510309866F80C001F5F0EF87F0016A42
:100FE00001501200016A0201B0ABF9EF87F0FBEF8C
:100FF00087F004EF88F0ABAB00EF88F002EF88F0E9
:1010000004EF88F0010E016E01501200420E446E92
:10101000050E456E000E386E000E396E40C53AF56D
:1010200041C53BF5440E3C6E050E3D6E68EC86F006
:101030001200026EC1EC88F002C503F50350C8EC43
:1010400087F0FF0EC8EC87F0DDEC87F0046EC5EC8E
:1010500088F004501200015002100310D8B433EF8E
:1010600088F035EF88F03BEF88F001C569F502C5DF
:101070006AF503C56BF51200015002100310D8B4D5
:1010800044EF88F046EF88F04CEF88F001C56CF52E
:1010900002C56DF503C56EF5120001500210031074
:1010A000D8B455EF88F057EF88F05DEF88F001C5B0
:1010B0006FF502C570F503C571F5120048656C6CDB
:1010C0006F206E524632344C303121000000000057
:1010D000000000000000000000000000026EF2ECC2
:1010E00087F00009D8B477EF88F079EF88F06FEFD8
:1010F00088F00250BDEC88F0120088EC88F0E9EC32
:1011000083F045EC87F002EC85F025EC87F01200C7
:10111000600E0001AD6FAF6BB36B080EB16FB06BBB
:10112000AC6B120001C5E2F502C5E3F503C5E4F5B9
:10113000120001C5E5F502C5E6F503C5E7F51200A5
:1011400001C572F502C573F503C574F5120001C53A
:1011500075F502C576F503C577F5120001C578F57A
:1011600002C579F503C57AF51200C050BF0BC06EF9
:101170001200C0504009C06E1200016E01C5A3F2FA
:101180001200C0507F0BC06E1200C0508009C06EAC
:071190001200E7C93F030054
:02119800120043
:020000040030CA
:080000008FFFF7FF9FFFFFFFD8
:01000900FFF7
:00000001FF
